:020000040000FA
:0600000036EF01F01200D2
:0A0006000100AC02000060000000E1
:040010009F0000004D
:0C001400720ED36ED3A4FED71200D08E63
:10002000F28E9D8A220EB06EAC84B886948C948E2B
:10003000AC98AB8EAC8AAB881200D9CFE6FFE1CF8B
:10004000D9FFFD0EDBCFE9FFFE0EDBCFEAFFEF505D
:100050000EE09EA8FED7FD0EDBCFE9FFDB2AFE0EE9
:10006000DBCFEAFF01E3DB2AEF50AD6EEAD7E552C2
:10007000E7CFD9FF1200D3DF0AEF00F0600EE66E83
:10008000000EE66EDADFE552E552640EE66E000E13
:10009000E66ED3DFE552E552C40EE66E090EE66E5B
:1000A00044EC01F0E552E5526C0EE66E000EE66E91
:1000B000C4DFE552E552C40EE66E090EE66E44EC6E
:1000C00001F0E552E552790EE66E000EE66EB5DF00
:1000D000E552E552C40EE66E090EE66E44EC01F000
:1000E000E552E5529B0EE66E000EE66EA6DFE55287
:1000F000E552C40EE66E090EE66E44EC01F0E552E0
:10010000E552A60EE66E000EE66E97DFE552E5526A
:10011000C40EE66E090EE66E44EC01F0E552E552BF
:10012000CC0EE66E000EE66E88DFE552E552C40E98
:10013000E66E090EE66E44EC01F0E552E5529E0EC5
:10014000E66E020EE66E79DFE552E552E80EE66EE7
:10015000000EE66E72DFE552E552C40EE66E090E41
:10016000E66E44EC01F0E552E552DB0EE66E000E61
:10017000E66E63DFE552E552C40EE66E090EE66EEA
:1001800044EC01F0E552E552120075DFF60EE66E22
:10019000000EE66E52DFE552E552C40EE66E090E21
:0E01A000E66E44EC01F0E552E5523EEF00F051
:0201AE00060E3B
:1001B000F66E000EF76E000EF86E01010900F550A4
:1001C000056F0900F550066F03E1056701D03DD0CA
:1001D0000900F550006F0900F550016F0900F55056
:1001E000026F09000900F550E96E0900F550EA6E4A
:1001F000090009000900F550036F0900F550046F6C
:1002000009000900F6CF07F1F7CF08F1F8CF09F19F
:1002100000C1F6FF01C1F7FF02C1F8FF010103535E
:1002200002E1045307E00900F550EE6E0307F8E21F
:100230000407F9D707C1F6FF08C1F7FF09C1F8FFA6
:0C02400001010507000E065BBFD712008D
:04024C00000EF36E3F
:1002500000EE00F0060E01D81200EA6002D0EE6A4D
:0C026000FCD7F350E9601200EE6AFCD7F6
:04026C0015EE00F09B
:1002700025EE00F0F86A019CD7EC00F055EC01F097
:08028000C5EC00F0FBD71200F1
:08028800FF0EE350E84E1200E6
:0E029000000000D000D000D0E82EFAD71200F7
:02029E004845D1
:0A02A0004C4C4F20574F524C4400C5
:0202AA00120040
:0402AC0041540A00AF
:1002B00041542B5253540A0041542B43574D4F4441
:1002C000453D310A0041542B43574A41503D22508D
:1002D0006978656C5F38323936222C226E69686124
:1002E0006C627261220A0041542B43574A41503FCD
:1002F0000A0041542B43495053544152543D225417
:100300004350222C2231302E33352E36342E3537C1
:10031000222C383038300A0041542B434950534581
:100320004E443D32360A0041542B434950434C4F12
:1003300053450A0041542B43495053454E443D32E6
:0B0340000A0041542B474D520A0D00EB
:020000040030CA
:0100010028D6
:0100020003FA
:010003003CC0
:01000500BD3D
:010006008178
:00000001FF
