:020000040000FA
:060000003BEF01F01200CD
:0A0006000100B60200000001000036
:04001000A800000044
:0C001400720ED36ED3A4FED71200220E91
:10002000B06EAC84B886948C948EAC98AB8EAC8A4F
:10003000AB881200D9CFE6FFE1CFD9FFFD0EDBCFB1
:10004000E9FFFE0EDBCFEAFFEF500EE09EA8FED7E1
:10005000FD0EDBCFE9FFDB2AFE0EDBCFEAFF01E37B
:10006000DB2AEF50AD6EEAD7E552E7CFD9FF120099
:10007000D6DF0AEF00F0000EE66E010EE66EDADF64
:10008000E552E552C40EE66E090EE66E49EC01F04B
:10009000E552E552050EE66E010EE66ECBDFE55247
:1000A000E552C40EE66E090EE66E49EC01F0E5522B
:1000B000E5520E0EE66E010EE66EBCDFE552E5522D
:1000C000C40EE66E090EE66E49EC01F0E552E5520B
:1000D0001C0EE66E010EE66EADDFE552E552C40E73
:1000E000E66E090EE66E49EC01F0E552E5523F0E70
:1000F000E66E010EE66E9EDFE552E552C40EE66E38
:10010000090EE66E49EC01F0E552E5524B0EE66E43
:10011000010EE66E8FDFE552E552C40EE66E090E63
:10012000E66E49EC01F0E552E552720EE66E010E04
:10013000E66E80DFE552E552C40EE66E090EE66E0D
:1001400049EC01F0E552E552A80EE66E020EE66EAD
:1001500071DFE552E552900EE66E010EE66E6ADF43
:10016000E552E552C40EE66E090EE66E49EC01F06A
:10017000E552E552820EE66E010EE66E5BDFE55259
:10018000E552C40EE66E090EE66E49EC01F0E5524A
:10019000E55212006DDF9F0EE66E010EE66E4ADF3D
:1001A000E552E552C40EE66E090EE66E49EC01F02A
:0801B000E552E5523BEF00F0BF
:0801B800060EF66E000EF76E54
:1001C000000EF86E01010900F550AD6F0900F55001
:1001D000AE6F03E1AD6701D03DD00900F550A86FC7
:1001E0000900F550A96F0900F550AA6F0900090030
:1001F000F550E96E0900F550EA6E090009000900A2
:10020000F550AB6F0900F550AC6F09000900F6CF4F
:10021000AFF1F7CFB0F1F8CFB1F1A8C1F6FFA9C1A6
:10022000F7FFAAC1F8FF0101AB5302E1AC5307E0AD
:100230000900F550EE6EAB07F8E2AC07F9D7AFC195
:10024000F6FFB0C1F7FFB1C1F8FF0101AD07000E25
:06025000AE5BBFD71200F7
:0A025600000EF36E00EE00F0060E3D
:1002600001D81200EA6002D0EE6AFCD7F350E960D0
:060270001200EE6AFCD74B
:0A02760015EE00F025EE00F0F86A26
:10028000019CDCEC00F05AEC01F0CAEC00F0FBD76A
:0202900012005A
:0E029200FF0EE350E84E1200000000D000D036
:0802A00000D0E82EFAD712008D
:0802A80048454C4C4F20574F14
:0402B000524C440068
:0202B400120036
:0A02B60041540A0D0041542B52532D
:1002C000540A0D0041542B43574D4F44453D310ACC
:1002D0000D0041542B43574A41503D2250697865E7
:1002E0006C5F38323936222C226E6968616C62721A
:1002F00061220A0D0041542B43574A41503F0A0DD9
:100300000041542B43495053544152543D225443CD
:1003100050222C2231302E33352E36342E353722D2
:100320002C383038300A0D0041542B434950534586
:100330004E443D32360A0D0041542B434950434C44
:100340004F53450A0D0041542B43495053454E44E9
:0E0350003D320A0D0041542B474D520A0D005C
:020000040030CA
:0100010028D6
:0100020003FA
:010003003CC0
:01000500BD3D
:010006008178
:00000001FF
